:020000040800F2
:1000000070A30020AD010008AD1D0008A51D00086B
:10001000A91D0008330B000839300008000000005B
:100020000000000000000000000000009F25000804
:10003000390C0008000000009D250008A1250008DB
:10004000C7010008C7010008C7010008C701000870
:10005000C7010008C7010008C7010008C701000860
:10006000C7010008C7010008C7010008390B0008D4
:10007000490B0008590B0008690B0008790B0008B0
:10008000890B0008990B0008C70100080000000058
:10009000000000000000000000000000C701000890
:1000A000C7010008C7010008C7010008C701000810
:1000B000C7010008C7010008C7010008C701000800
:1000C000C7010008C7010008C7010008C7010008F0
:1000D000C7010008BD2F0008E12F00080000000044
:1000E000C7010008C7010008C701000800000000A0
:1000F000000000000000000000000000A90B000844
:1001000000000000C7010008C7010008C70100087F
:1001100000000000000000000000000000000000DF
:10012000B90B0008C90B0008D90B0008E90B00083F
:10013000F90B0008000000000000000000000000B3
:10014000000000000000000000000000C7010008DF
:10015000090C0008190C0008290C00080D300008D3
:10016000C7010008C70100080000000000000000EF
:10017000000000000000000000000000000000007F
:1001800000000000C701000800000000000000009F
:10019000C7010008C7010008DFF80CD000F0BCFB65
:1001A000004800478555000870A300200648804796
:1001B00006480047FEE7FEE7FEE7FEE7FEE7FEE74C
:1001C000FEE7FEE7FEE7FEE7A92500089901000823
:1001D00040EA01039B0703D009E008C9121F08C0C9
:1001E000042AFAD203E011F8013B00F8013B521E49
:1001F000F9D27047D2B201E000F8012B491EFBD2C0
:1002000070470022F6E710B513460A460446194621
:10021000FFF7F0FF204610BD10B5002200E0521C91
:10022000835C8C5CA34201D1002BF8D1D8B2E1B23F
:10023000401A10BD034611F8012B00F8012B002ACB
:10024000F9D1184670472DE9FE4F804681EA030038
:10025000C00F0C46009021F0004123F00045B8EBA0
:100260000200A94105D24046214690461C460B4655
:10027000024623F00040104347D0270DC7F30A0081
:10028000C3F30A510290401A019040286BDAC3F37D
:10029000130040F4801B0098924620B10023D2EB5B
:1002A000030A63EB0B0B01985946C0F1400250461C
:1002B00000F065F906460D4650465946019A00F091
:1002C0006DF910EB08006141002487EA115284EABD
:1002D000E7731A4340D0009A62B3019A012A4FEAA9
:1002E000075215DC001B61EB02014FF0004202EAED
:1002F0000752CDE90042001C41F5801132462B46E1
:1003000000F0A4F903B0BDE8F08F40462146F9E7BC
:10031000001B61EB0201001C41F5801300185B41DA
:100320002018A2F5001747EB030140EAD570B61973
:100330006D4111E06D084FEA360645EAC0754FEA97
:100340000752001B61EB0201001C41F580114908B6
:100350004FEA30000019514132462B4603B0BDE848
:10036000F04F00F064B90098012240000023D0EB68
:10037000020263EBE073009821464FEAE074B8EBA9
:10038000000061EB0401E9E783F000435BE781F0E3
:10039000004158E72DE9FE4F81EA030404F00044D0
:1003A00021F0004100944FF0000B23F0004350EA8D
:1003B00001045ED052EA03045BD0C3F30A54C1F3D4
:1003C0000A552C44A4F2F3340194A0FB0254C1F367
:1003D000130141F48011C3F3130343F4801301FBB1
:1003E000024400FB034E840A970A44EA815447EA18
:1003F0008357A4FB076802958D0A05FB07854FEA22
:10040000932C04FB0C542705029D4FEA065847EA3B
:100410001637B5EB08056EEB070C870E920E47EA10
:10042000811742EA8312A7FB0201B6EB0B0164EBD2
:1004300000042B0D43EA0C335E1844EB1C50DA46E3
:100440005146E7FB0201C5F313044FEA0B3343EABD
:1004500014534FEA0432019C43EA0603A4F10C044E
:100460000294009CCDE900B400F0F0F803B0BDE8C0
:10047000F08F00200146F9E70EB540F233410291BA
:100480000021CDE900110A460B4600F0DFF803B069
:1004900000BD00F0004230F000400AD0C10D01F56F
:1004A0006071C0F3160042EA0151C20840071143CF
:1004B000704700200146704701F0004330B421F03E
:1004C000004150EA010206D00A0DA2F56072C1F3A4
:1004D0001301002A02DC30BC00207047440F44EABC
:1004E000C104C100E01830BC00EBC25000F068B895
:1004F00030B50B46014600202022012409E021FAF4
:1005000002F59D4205D303FA02F5491B04FA02F5F0
:100510002844151EA2F10102F1DC30BD2DE9F05F87
:100520000546002092469B46884606468146402462
:100530001BE0284641464746224600F0FFF9534655
:100540005A46C01A914110D311461846224600F06F
:1005500016F82D1A67EB01084F46224601200021AC
:1005600000F00DF817EB00094E41201EA4F1010424
:10057000DFDC484631462A464346BDE8F09F202A44
:1005800004DB203A00FA02F1002070479140C2F1EA
:10059000200320FA03F3194390407047202A06DB1A
:1005A000CB17203A41FA02F043EAE07306E041FA41
:1005B00002F3D040C2F1200291400843194670472F
:1005C0000029A8BF7047401C490008BF20F0010067
:1005D000704710B4B0FA80FC00FA0CF050EA010445
:1005E00004BF10BC704749B1CCF1200421FA04F4D7
:1005F00011FA0CF118BF012121430843A3EB0C01B0
:10060000CB1D4FEA00614FEA102042BF002010BC12
:10061000704700EBC35010440029A4BF10BC7047C2
:10062000401C490008BF20F0010010BC704710B505
:10063000141E73F1000408DA401C41F10001921805
:100640005B411A4301D120F0010010BD2DE9F04DAE
:1006500092469B4611B1B1FA81F202E0B0FA80F203
:1006600020329046FFF78BFF04460F4640EA0A000F
:1006700041EA0B0153465A46084313D0114653EA48
:10068000010019D0C8F14002504600F057F9054664
:100690000E46504659464246FFF771FF084305D0C3
:1006A000012004E020463946BDE8F08D00200543D6
:1006B00046EAE0762C4337430A986305E40AA0EB48
:1006C00008000022FD0A44EA47540A3002D50020FF
:1006D0000146E9E7010510196941DDE908450019FE
:1006E0006941BDE8F04DA2E72DE9F04D81EA030430
:1006F00004F0004B21F0004514464FF0000A23F0AF
:10070000004150EA050220D054EA01021DD0C5F391
:100710000A570246C5F31303C1F31300C1F30A5687
:1007200040F4801543F48013A7EB0608101BD6464F
:1007300008F2FD3873EB050002D308F1010801E06F
:1007400092185B41B8F1000F03DA00200146BDE8C2
:10075000F08D00204FF48011064684460EE0171BF2
:1007600073EB050705D3121B63EB050306434CEA45
:10077000010C49084FEA300092185B4150EA01072A
:10078000EDD152EA030012D082EA040083EA0501A7
:10079000084305D0101BAB4106D20122002306E01E
:1007A00000224FF0004302E06FF0010253101AEBF9
:1007B00006004CEB085110EB0A0041EB0B01BDE8C1
:1007C000F04DFFF734BF70B521F0004303430CD068
:1007D000C1F30A550024D5EB040564EB0403D617D6
:1007E000AD1AB34102DB0020014670BD201841EB79
:1007F000025170BD2DE9F04D00231A461B1A8A41A3
:1008000003DB00200146BDE8F08DC1F30A52C1F3BD
:10081000130141F480154FF0000BD10702D10018ED
:100820006D41521E0027044640F2FF11384601EB8D
:10083000620A3E468046024600204FF4801100F0D6
:100840007DF8C2197141BB1846EB0100B4EB030CF3
:1008500075EB000C04D3E41A65EB000517460E4651
:10086000241908F101006D4180463428E3DDF919AF
:1008700046EB0600091BA84103D24FF0FF32134696
:1008800001E0002213461BEB070046EB0A51BDE8CE
:10089000F04DFFF7CCBE0EB5C10F80EAE070084402
:1008A000CA07002140F233438DE80E000A460B468A
:1008B000FFF7CCFE03B000BDC1F30A52C1F3130130
:1008C00040F2FF3341F480119A4202DA00200146DF
:1008D000704740F233439A42A2F2334202DC524262
:1008E00000F02CB8FFF74BBE30B5041E71F10004C8
:1008F00004DB4FF00044404264EB0101141E73F12D
:10090000000405DB1C464FF00043524263EB040336
:10091000994208BF904230BD064C074D06E0E068A2
:1009200040F0010394E8070098471034AC42F6D336
:10093000FFF736FC405B0008605B0008202A04DB00
:10094000203A21FA02F00021704721FA02F3D04048
:10095000C2F12002914008431946704770B5C1F3B7
:100960000A5201F000450024C1F3130140F2FF33A5
:1009700041F480119A4201DA002070BD40F2334305
:100980009A42A2F2334203DC5242FFF7D7FF00E063
:1009900090402C43F1D0404270BD30B50146002458
:1009A00009B9002030BD4A688B689A4200D10C68B2
:1009B000934200D99C1A9A4202D9D51A0868441B5E
:1009C000601EEFE730B503460BB9002030BD596813
:1009D0009A68914200D10024914200D98C1A8A422F
:1009E00002D9551A1868441B2046EFE770B5044633
:1009F0000D4616460CB9012070BD18212046FFF7A0
:100A000000FC2560E6600A206074E06868B928464A
:100A100004F0A2FEE060E06818B900202060012028
:100A2000EAE7207C40F002002074207C40F00100C6
:100A300020740020E0E72DE9F0470446884615467B
:100A40004FF0000904B115B90020BDE8F087216816
:100A5000A068884201D30020A0602046FFF7B2FFC3
:100A60000746AF4203D20FB90020EEE73D46A1682A
:100A70002068461AAE4200D92E46D4E902208118D9
:100A800032464046FFF7A4FBB144A0683044A06062
:100A9000AD1B35B108EB09002A46E168FFF798FB6A
:100AA000A5602168A068884201D30020A06009EBFE
:100AB0000500CAE72DE9F0470446894615464FF080
:100AC000000804B115B90020BDE8F087D4E9001092
:100AD000884201D3002060602046FFF75EFF074692
:100AE000AF4203D20FB90020EEE73D46D4E9000142
:100AF000461AAE4200D92E466268E168881832462E
:100B00004946FFF765FBB044606830446060AD1B48
:100B100035B109EB08012A46E068FFF759FB65602B
:100B2000D4E90010884201D30020606008EB050082
:100B3000CAE700BFFEE7000010B5024801F02FFE33
:100B400010BD00001060024010B5024801F027FE01
:100B500010BD00002860024010B5024801F01FFEE1
:100B600010BD00004060024010B5024801F017FEC1
:100B700010BD00005860024010B5024801F00FFEA1
:100B800010BD00007060024010B5024801F007FE81
:100B900010BD00008860024010B5024801F0FFFD62
:100BA00010BD0000A060024010B5024801F0F7FD42
:100BB00010BD0000B860024010B5024801F0EFFD22
:100BC00010BD00001064024010B5024801F0E7FDBE
:100BD00010BD00002864024010B5024801F0DFFD9E
:100BE00010BD00004064024010B5024801F0D7FD7E
:100BF00010BD00005864024010B5024801F0CFFD5E
:100C000010BD00007064024010B5024801F0C7FD3D
:100C100010BD00008864024010B5024801F0BFFD1D
:100C200010BD0000A064024010B5024801F0B7FDFD
:100C300010BD0000B86402407047000070B5044663
:100C40000D462A4621460248FFF734FF70BD0000DA
:100C50003803002070B52DED108B8AB0044694ED5A
:100C6000000ADFEDFE0A20EE200A10EE106A94ED75
:100C7000020ADFEDFA0A20EE200A10EE105A94ED77
:100C8000010ADFEDF60A20EE200AB0EE409A94ED5C
:100C9000030ADFEDF20A20EE200AF0EE409A94ED0E
:100CA000020AD4ED000A30EE600ADFEDEC0A20EE15
:100CB000200AB0EE408A94ED030AD4ED010A30EE2A
:100CC000600ADFEDE60A20EE200AF0EE408AB6EE7A
:100CD000000A28EE800A10EE101A0846FFF7D9FB2A
:100CE00041EC1A0BB0EE4A0AF0EE6A0A03F0C0FAC1
:100CF000B0EE40FAF0EE60FAB6EE000A28EE800A96
:100D000010EE101A0846FFF7C4FB41EC1A0BB0EEC8
:100D10004A0AF0EE6A0A03F0ABFA8DED000B2846A2
:100D2000FFF7B7FB41EC1C0BB0EE4C0AF0EE6C0A7F
:100D300002F012FCB0EE40AAF0EE60AA3046FFF7D7
:100D4000A8FB41EC1C0BB0EE4C0AF0EE6C0A02F072
:100D500003FCB0EE40BAF0EE60BA53EC1A2B51EC43
:100D60001B0BFFF717FB41EC1D0B9DED000B53EC2C
:100D7000102BFFF70FFB53EC1F2BCDE902019DED6C
:100D8000020B51EC100BFFF705FBB6EE000A28EE44
:100D9000000ACDE9060110EE101A0846FFF779FBAC
:100DA00041EC1C0BB0EE4C0AF0EE6C0A03F060FA5A
:100DB000B0EE40AAF0EE60AAB6EE000A28EE000AF5
:100DC00010EE101A0846FFF764FB41EC1C0BB0EE66
:100DD0004C0AF0EE6C0A03F04BFAB0EE40BAF0EEBB
:100DE00060BA53EC1A2B51EC1B0BFFF7D3FACDE989
:100DF00004019DED060B53EC102B9DED040B51EC03
:100E0000100BFFF720FACDE908019DED080B51EC1E
:100E1000100BFFF751FB0EEE100AB7EE000A30EE92
:100E20004E0A10EE101A0846FFF733FB41EC1C0B7C
:100E3000B0EE4C0AF0EE6C0A03F07EFAB0EE40BA67
:100E4000F0EE60BA1EEE100AFFF723FB41EC1C0B1C
:100E5000B0EE4C0AF0EE6C0A03F06EFAB0EE40DA37
:100E6000F0EE60DAB0EE4B1AF0EE6B1A02F07CFA9C
:100E70008DED080B9FED7A0B53EC102B9DED080BBD
:100E800051EC100BFFF786FA41EC1A0B9FED760B35
:100E900053EC102BFFF77EFA41EC1F0BFFF70CFB16
:100EA00020612846FFF7F5FA41EC1C0BB0EE4C0A26
:100EB000F0EE6C0A02F050FBB0EE40DAF0EE60DAD1
:100EC00039EEC90A10EE101A0846FFF7E2FA41ECB3
:100ED0001C0BB0EE4C0AF0EE6C0A03F0C9F9B0EE50
:100EE00040BAF0EE60BA53EC1D2B51EC1B0BFFF730
:100EF00051FA41EC1A0BFFF7DFFA08EE100A39EE4F
:100F0000C90A10EE101A0846FFF7C3FA41EC1A0B93
:100F1000B0EE4A0AF0EE6A0A02F01EFBB0EE40DACA
:100F2000F0EE60DA2846FFF7B4FA41EC1C0BB0EEA5
:100F30004C0AF0EE6C0A02F00FFBB0EE40AAF0EEA5
:100F400060AA3046FFF7A5FA41EC1C0BB0EE4C0A44
:100F5000F0EE6C0A03F08CF9B0EE40BAF0EE60BA35
:100F600053EC1A2B51EC1B0BFFF714FA41EC1F0B3F
:100F700053EC1D2BFFF70EFACDE906012846FFF7CB
:100F800088FA41EC1C0BB0EE4C0AF0EE6C0A03F050
:100F90006FF9B0EE40AAF0EE60AA3046FFF779FA9A
:100FA00041EC1C0BB0EE4C0AF0EE6C0A02F0D4FAE5
:100FB000B0EE40BAF0EE60BA53EC1A2B51EC1B0BBA
:100FC000FFF7E8F9CDE904019DED060B53EC102B7A
:100FD0009DED040B51EC100BFFF7D6F9CDE908019C
:100FE0009DED080B51EC100BFFF766FA08EE900A26
:100FF00018EE900AFFF74DFA41EC1C0B18EE100AA0
:10100000FFF747FA41EC1D0BB0EE4C1AF0EE6C1AEC
:10101000B0EE4D0AF0EE6D0A02F0A6F9B0EE40BA5D
:10102000F0EE60BA9FED120B53EC102B51EC1B0B42
:10103000FFF7B0F941EC1A0BFFF73EFA606194ED4F
:10104000050AB5EEC00AF1EE10FA19D294ED050AC0
:10105000DFED090A30EE200A10E0000035FA8E3C80
:101060000000000000E3C8400000000000408F4086
:1010700000000020DCA54C400000B44384ED050ACC
:1010800000200AB0BDEC108B70BD000010B5044606
:10109000EC212046FFF7B5F8034A4FF4807103486E
:1010A000FFF7A4FC002010BD380200203803002008
:1010B00038B50446F9E09DF8000024281ED11A2115
:1010C0008148FFF79EF800207F49487600BF9DF8D1
:1010D00000107D48407800F01F027B48407800F007
:1010E0001F00401C784B5870581D81540021401F30
:1010F000407800F01F02581D8154A6E09DF80000C2
:101100002C281AD100BF7048407E9DF8001048403E
:101110006D49487600BF204600F0DCFF00BF00208C
:10112000694948714870084600784008401C0978B1
:1011300060F345016448017087E09DF800002A28AB
:1011400018D16148007820F00100401C5E49087009
:10115000204600F0BFFF00BF00205B494871487087
:10116000084600784008401C097860F3450156485D
:1011700001706AE09DF800000D283CD10021524822
:10118000401D00F099FEC0B24F49497E88425CD1B3
:101190004D48807800F00F00012806D0022805D0C5
:1011A000032810D0042824D101E000BF00BF464826
:1011B000807800F00F0101208840444909780843F5
:1011C0004249087016E040488078C0F302103E495A
:1011D000C97801F0070188420AD13B48807800F0C5
:1011E0000F010120884039490978084337490870C0
:1011F00000BF00BF29E09DF80000202825D032481C
:10120000007800F0010040B900BF2F48407E9DF8F3
:10121000001048402C49487600BF00BF9DF80010E0
:101220002948407800F01F022748407800F01F004E
:10123000401C254B5870581D81540021401F407898
:1012400000F01F02581D815400BF2048007800F0B4
:101250001E001E2829D10122002109E004F1D4003A
:1012600050F82100807C08B9002205E0481CC1B27A
:1012700094F8E8008842F1DC00BFAAB10020134BCB
:101280001870002107E0002304F1D40050F8210079
:101290008374481CC1B294F8E8008842F3DC002053
:1012A0000B4B1870042038BD00BF01226946094865
:1012B000FFF7C1FB00287FF4FEAE0548007808B1B7
:1012C0000220F0E70320EEE7500300204C0000204E
:1012D0004D000020380300200148006870470000DE
:1012E0000400002010B52E480068401C2C490860FE
:1012F0002C48006820B12B480068401E294908602E
:10130000002444E0284850F8240000283DD0264816
:1013100050F824000078C0F34000B0B3224850F8E1
:101320002400806840B1204850F824008068401EA6
:101330001D4951F8241088601B4850F8240080682B
:1013400018BB194B53F824301969174B53F8240074
:1013500053F82430DA689047134850F82400416865
:10136000114850F8240081600F4850F8240000789C
:1013700000F0010048B90C4850F82400007820F033
:101380000201094850F824000170601CC4B20648EC
:10139000001F0078A042B5DC01F069F910BD000023
:1013A00004000020000000208000002010B50D483F
:1013B000006840F400700B4908600846006840F47B
:1013C000806008600846006840F480700860032070
:1013D00000F086F80F2000F007F800F017F8002062
:1013E00010BD0000003C024070B5044600F0E4F976
:1013F0004FF47A71B0FBF1F5284600F081FC002231
:101400002146501E00F02DF8002070BD70470000EE
:1014100000BF00F01F0201219140034A430942F836
:10142000231000BF7047000080E200E000BF00F022
:101430001F0201219140034A430942F8231000BFD3
:101440007047000080E100E000BF00F01F020121B2
:1014500091404209920002F1E022C2F8001100BF5F
:1014600070472DE9F05F80460D461646002700F0D4
:101470009FFC074639462A46334601F00700C0F173
:10148000070ABAF1040F02D94FF0040A01E0C0F1D3
:10149000070AD14600F1040ABAF1070F02D24FF051
:1014A000000A01E0A0F1030AD4464FF0010A0AFA4B
:1014B00009FAAAF1010A0AEA020A0AFA0CFA4FF03A
:1014C000010B0BFA0CFBABF1010B0BEA030B4AEA25
:1014D0000B042146404600F073FCBDE8F09F00007D
:1014E00000BF00F00702064B19684FF6FF031940D2
:1014F000044B0B4343EA0221014B196000BF7047C4
:101500000CED00E00000FA0570B504460E4600251B
:10151000A748006800F00F00B0426FD2A4490E70D7
:101520000846006800F00F00B04201D0012070BDF5
:10153000207800F00200022807D19E48006820F0C1
:10154000F000A16808439B490860207800F0010082
:1015500000283ED06068012807D196480838006806
:10156000C0F34040B8B90120E1E76068022802D02A
:101570006068032807D18F4808380068C0F34060CE
:1015800048B90120D3E78B4808380068C0F3400011
:1015900008B90120CBE78748006820F003006168A4
:1015A000084384490860FFF797FE054660680128F4
:1015B00010D108E0FFF790FE401B41F288318842CD
:1015C00001D90320B3E77B48006800F00C00042831
:1015D000F0D1CDE06068022811D108E0FFF77CFE71
:1015E000401B41F28831884201D903209FE77148AE
:1015F000006800F00C000828F0D1B9E024E0606831
:10160000032810D108E0FFF767FE401B41F2883144
:10161000884201D903208AE76648006800F00C0080
:101620000328F0D1A4E008E0FFF756FE401B41F28A
:101630008831884201D9032079E75E48006800F0CC
:101640000C000028F0D193E0207800F0020002287E
:1016500007D15848006820F0F000A16808435549B8
:101660000860207800F00100002877D06068012829
:1016700007D1504808380068C0F34040B8B901208D
:1016800055E76068022802D06068032807D14948FE
:1016900008380068C0F3406048B9012047E7454872
:1016A00008380068C0F3400008B901203FE741480E
:1016B000006820F00300616808433E490860FFF7B6
:1016C0000BFE05466068012810D108E0FFF704FE14
:1016D000401B41F28831884201D9032027E7354871
:1016E000006800F00C000428F0D137E060680228A0
:1016F00010D108E0FFF7F0FD401B41F2883188422D
:1017000001D9032013E72B48006800F00C000828DB
:10171000F0D123E06068032810D108E0FFF7DCFD7A
:10172000401B41F28831884201D90320FFE621485D
:10173000006800F00C000328F0D10FE008E0FFF78C
:10174000CBFD401B41F28831884201D90320EEE6EF
:101750001848006800F00C000028F0D114490E7001
:101760000846006800F00F00B04201D00120DEE61C
:10177000207800F00400042807D10E48006820F407
:10178000E050E16808430B490860207800F0080049
:10179000082808D10748006820F46040216940EA21
:1017A000C100044908600F20FFF71EFE0020BEE6BE
:1017B000003C02400838024010B500F045F80949E5
:1017C000096801F0F001F02292FAA2F2B2FA82F274
:1017D000D140054A515CC840044908600846006889
:1017E00010BD0000083802403258000848000020B0
:1017F00010B5FFF7E1FF0749096801F4E0514FF424
:10180000E05292FAA2F2B2FA82F2D140024A515C5C
:10181000C84010BD083802403258000810B5FFF724
:10182000CBFF0749096801F460414FF4604292FA26
:10183000A2F2B2FA82F2D140024A515CC84010BD15
:10184000083802403258000870B5002100220023F9
:101850000020274C246804F00C0424B1042C04D08C
:10186000082C41D103E0234840E023483EE0204CCF
:10187000241F246804F03F011D4C241F246804F435
:10188000800484B11C4CB4FBF1F5194C241F24686E
:1018900047F6C076344096FAA6F6B6FA86F6F440D5
:1018A00005FB04F20FE0134CB4FBF1F5104C241FC0
:1018B000246847F6C076344096FAA6F6B6FA86F65D
:1018C000F44005FB04F20A4C241F246804F440345D
:1018D0004FF4403595FAA5F5B5FA85F5EC40641C52
:1018E0006300B2FBF3F001E0024800BF00BF70BD2F
:1018F000083802400024F40000127A0038B504468B
:101900000025207800F00100002866D0F648006825
:1019100000F00C0004280DD0F348006800F00C0023
:10192000082813D1F048001F006800F48000B0F5CB
:10193000800F0BD1EC4808380068C0F34040002805
:101940004BD06068002848D1012038BD0020E6490E
:10195000891F0870FFF7C0FC054608E0FFF7BCFCD4
:10196000401B41F28831884201D90320EDE7DE486F
:1019700008380068C0F340400028EFD12079DA49E8
:10198000891F08706068A0B1FFF7A6FC054608E053
:10199000FFF7A2FC401B41F28831884201D90320A5
:1019A000D3E7D14808380068C0F340400028EFD0A2
:1019B00013E0FFF791FC054608E0FFF78DFC401BA4
:1019C00041F28831884201D90320BEE7C648083871
:1019D0000068C0F340400028EFD1207800F00200FA
:1019E000022869D1C048006800F00C0058B1BE4818
:1019F000006800F00C00082821D1BB48001F0068D7
:101A000000F48000D8B9B84808380068C0F3400036
:101A100020B1E068012801D0012096E7B2480838DB
:101A2000006820F0F800F82292FAA2F2B2FA82F2EC
:101A3000216991400843AC49083908603CE0E068FE
:101A400028B30120A9490860FFF746FC054606E0D7
:101A5000FFF742FC401B642801D9032075E7A24828
:101A600008380068C0F340000028F1D09E480838CC
:101A7000006820F0F800F82292FAA2F2B2FA82F29C
:101A800021699140084398490839086014E0002012
:101A900096490860FFF720FC054606E0FFF71CFCAE
:101AA000401B642801D903204FE78F48083800689D
:101AB000C0F340000028F1D1207800F00800082889
:101AC0002CD16069A8B1012089490860FFF704FCA6
:101AD000054606E0FFF700FC401B642801D90320FF
:101AE00033E781486C300068C0F340000028F1D033
:101AF00014E000207E490860FFF7EEFB054606E093
:101B0000FFF7EAFB401B642801D903201DE7764854
:101B10006C300068C0F340000028F1D1207800F05C
:101B2000040004286DD100BF6F483830006840F0D1
:101B300080506D49383108600846006800F08050D8
:101B4000009000BF00BF6B48006840F48070694996
:101B50000860FFF7C1FB054606E0FFF7BDFB401B31
:101B6000642801D90320F0E66248006800F4807020
:101B70000028F2D000205C4968310870FFF7ACFB08
:101B8000054608E0FFF7A8FB401B41F28831884278
:101B900001D90320D9E6544868300068C0F34000FA
:101BA0000028EFD1207A504968310870A068A0B1B0
:101BB000FFF792FB054608E0FFF78EFB401B41F262
:101BC0008831884201D90320BFE647486830006861
:101BD000C0F340000028EFD013E0FFF77DFB05467F
:101BE00008E0FFF779FB401B41F28831884201D9B8
:101BF0000320AAE63C4868300068C0F34000002893
:101C0000EFD1A069F0B33848006800F00C00082854
:101C100072D0A069022850D1002034490866FFF72D
:101C20005BFB054606E0FFF757FB401B642801D924
:101C300003208AE62C4808380068C0F3406000287A
:101C4000F1D1D4E90701084347F6C07292FAA2F233
:101C5000B2FA82F2616A914008430122A16AC2EBA2
:101C600051014FF4403292FAA2F2B2FA82F291405C
:101C700008434FF0706292FAA2F2B2FA82F2E16A7D
:101C8000914000E03AE008431749091F086001202D
:101C900016490866FFF720FB054606E0FFF71CFB28
:101CA000401B642801D903204FE60F48083800681C
:101CB000C0F340600028F1D020E000200B49086606
:101CC000FFF70AFB054606E0FFF706FB401B64280A
:101CD00001D9032039E6044808380068C0F34060A1
:101CE0000028F1D10AE007E008380240000047422E
:101CF000800E474200700040012026E6002024E6C6
:101D000070B504462546681EB0F1807F01D30120DE
:101D10000FE0681E4FF0E02148610F214FF0FF30C7
:101D200000F04EF800204FF0E021886107200861A4
:101D3000002070BD10B504460CB9012010BDA0698B
:101D400000B100E000BF94F8390028B9002084F801
:101D50003800204600F025F8022084F83900206879
:101D6000C06820F400502168C860204601F014F8D3
:101D70002068006920F4904021680861206840696B
:101D800020F02A00216848612068C06840F40050B3
:101D90002168C8600020E063012084F83900002039
:101DA000CCE7704700BFFEE700BFFEE770470000CA
:101DB00002480068C0F30220704700000CED00E00C
:101DC00010B5002807DA0A07140E054A00F00F03C1
:101DD0001B1FD45403E00A07130E024A135410BD0C
:101DE00018ED00E000E400E070B52DED088B82B046
:101DF00004460D460020019000269FED2C0AB0EE0F
:101E0000408A01A9204600F043F900EE100AB8EE1E
:101E1000C00AB0EE408A9DF804003044C6B29DF876
:101E20000400044420782E2837D101A9601C00F05A
:101E30002FF900EE100AB8EEC0BA9DF80400FEF7C4
:101E40001BFB41EC1A0BB0EE4A1AF0EE6A1A9FED3A
:101E5000180B01F0E5FBB0EE409AF0EE609A51EC01
:101E6000190BFEF729FB00EE100ACBEE000AF0EE8C
:101E7000608AB5EEC08AF1EE10FA04DB38EE280A6B
:101E8000B0EE408A03E038EE680AB0EE408A9DF872
:101E90000400401C3044C6B200BF05B12E70B0EE45
:101EA000480A02B0BDEC088B70BD000000000000C5
:101EB000000000000000244030B50246002300204E
:101EC00021E01478302C05DB1478392C02DC1478EE
:101ED000303C12E01478612C05DB14787A2C02DC9B
:101EE0001478573C09E01478412C05DB14785A2CFF
:101EF00002DC1478373C00E00024102500FB05408C
:101F0000521C5C1CE3B21478302C02DB1478392CA0
:101F1000D7DD1478612C02DB1478662CD1DD1478BF
:101F2000412C02DB1478462CCBDD01B10B7030BDA7
:101F3000F0B52DED068B81B006460C4617461D46C2
:101F400020792E2849D160783038217830390A221A
:101F500012FB010000EE100AB8EEC00AB0EE408A93
:101F6000E0783038A178303912FB010000EE100A19
:101F7000F8EEC00A9FED431A80EE810A30EE080A9F
:101F8000B0EE408A6946601D00F082F800EE100A4B
:101F9000F8EEC08A9DF80000FEF76EFA41EC1A0BCD
:101FA000B0EE4A1AF0EE6A1A9FED370B01F038FBDB
:101FB000B0EE409AF0EE609A51EC190BFEF77CFA05
:101FC00000EE100ADFED2F0A60EE200A88EEA00A6C
:101FD00030EE080AB0EE408A4EE0207830386421B6
:101FE00010FB01F1607830380A2212FB0011A07852
:101FF0003038084400EE100AB8EEC00AB0EE408A4D
:1020000020793038E178303912FB010000EE100AF7
:10201000F8EEC00A9FED1B1A80EE810A30EE080A26
:10202000B0EE408A6946A01D00F032F800EE100ABA
:10203000F8EEC08A9DF80000FEF71EFA41EC1A0B7C
:10204000B0EE4A1AF0EE6A1A9FED0F0B01F0E8FAB3
:10205000B0EE409AF0EE609A51EC190BFEF72CFAB4
:1020600000EE100ADFED070A60EE200A88EEA00AF3
:1020700030EE080AB0EE408A85ED008A01B0BDEC72
:10208000068BF0BD000070420000000000002440FC
:1020900070B5024600250024002310782D2803D1B6
:1020A0000125521C601CC4B207E0107830380A26A3
:1020B00003FB0603521C601CC4B21078302802DBFC
:1020C00010783928F1DD01B10C700DB1584270BDA6
:1020D0001846FCE72DE9F8430446FE480078C0F3B3
:1020E0004400002845D1FCA1FA48401DFEF794F8B1
:1020F00038B9F848807820F00F00401CF549887006
:102100002FE0F7A1F348401DFEF786F838B9F148F3
:10211000807820F00F00801CEE49887021E0F2A149
:10212000EC48401DFEF778F838B9EA48807820F08E
:102130000F00C01CE749887013E0EDA1E548401D81
:10214000FEF76AF838B9E348807820F00F00001DE8
:10215000E049887005E0DF48807820F00F00DD4915
:102160008870DC49491D01F10D00FEF763F8BDE8F8
:10217000F883002625E0D7480078C0F3440104F135
:10218000D40050F826000079814218D104F1D4011E
:1021900051F826100868CF491231FEF73DF870B9A2
:1021A00004F1D40151F82610481DCA49491DFEF713
:1021B00041F8012104F1D40050F826008174701C0C
:1021C000C6B294F8E800B042D5DCC2480078C0F34B
:1021D0004400C049897801F00F0140EA012040F233
:1021E0000A22811A904272D019DC40F20222A0EB3E
:1021F000020190426CD00ADCA0F20110092868D2DA
:10220000DFE800F02D7881959DACB167B800082912
:10221000F5D2DFE801F05EBEBFC0C1C2C3C4F7297A
:1022200070D007DC0829EAD2DFE801F053BBBCBD5F
:10223000BECDD5DD40F2FD12881A914272D007DC86
:10224000F82970D0F9296FD0B1F5FC7F41D1D2E0E7
:1022500001286AD0022869D00328F7D107E19D48F8
:10226000807930389B49497930390A2212FB0100C4
:10227000A0739848007A30389649C979303912FBF2
:102280000100E0739348807A30389249497A3039B6
:1022900012FB010020748F48C07A2E2829D169468C
:1022A0008C480C30FFF7F4FE85B29DF80000012841
:1022B00004D002280ED0032819D112E005EB8500C6
:1022C0004006010E61746420684360820FE067E09D
:1022D00058E0EBE0657405EB85004004010C618279
:1022E00005E00A2095FBF0F06074658200BF00BF36
:1022F00000BF4DE1234600227649491D2046FFF7E5
:1023000017FE45E1BBE073484079532803D071487C
:102310004079732805D194ED000AB1EE400A84EDAE
:10232000000A35E171E0B0E0B8E076E07DE0231D21
:1023300000226849491D2046FFF7FAFD28E165485B
:102340004079572803D063484079772805D194ED28
:10235000000AB1EE400A84ED000A19E15D484079B7
:102360003038207314E100215A48401DFFF790FED9
:1023700060730DE100215748401DFFF735FD84EDE6
:10238000020A05E100215348401DFFF781FE207538
:10239000FEE000BF00BF00BF00BF00BF00BF00BF26
:1023A00000BF00BF00BF00BF00214A48401DFFF72B
:1023B0006FFEC2B247480078C0F34400C01E04F16B
:1023C00015010A54E4E000214248401DFFF70CFDCE
:1023D00084ED0A0ADCE000213E48401DFFF704FDC1
:1023E00084ED090AD4E000213A48401DFFF7FCFCC7
:1023F00084ED0B0ACCE037484079412801D1012017
:1024000000E0002084F8C500C2E000213148401DF2
:10241000FFF7EAFC84ED320ABAE000212D48401DA6
:10242000FFF7E2FC84ED330AB2E02A4880793038C5
:102430002849497930390A2212FB010084F8C20088
:102440002448007A30382349C979303912FB010019
:10245000C1B2C32001551F48807A30381D49497ADE
:10246000303912FB0100C1B2C420015590E00021B7
:102470001848401DFFF7B8FC84ED340A88E0154881
:10248000407930381349C87082E0124840791149C8
:10249000897860F306110F48817079E000210D48BA
:1024A000401DFFF7F5FD84F8300071E009488078A1
:1024B00000F00F0003286AD106480078C0F34400FA
:1024C000042864DB00210348401DFFF7E1FD0746B7
:1024D000004811E0500300202447504747410000C6
:1024E00024475047534100002447504753560000AB
:1024F000244750524D4300000078C0F34400001FB1
:10250000C5B22846E91705EB91718910A5EB810149
:1025100001F0FF08E91705EB91718A101E498978CF
:10252000C1F30211491E02EB8101CDB2182D2DDA43
:10253000B8F1000F09D0B8F1010F0DD0B8F1020FBA
:1025400012D0B8F1030F1FD116E005EB450204F1DC
:10255000320000F8127018E005EB450204F1320079
:1025600000EB4200477010E005EB450204F1320039
:1025700000EB4200478008E005EB450204F1320021
:1025800000EB4200077100E000BF00BF00BF00BFCA
:1025900000BF00BFEBE5000050030020704770470C
:1025A00010B5FEF79FFE10BD1448006840F470009F
:1025B000124908601248006840F0010010490860A4
:1025C00000200F49083108600D4800680D49084097
:1025D0000B4908600C48091D0860081F006820F4BA
:1025E0008020091F0860002005490C3108604FF069
:1025F00000600249803908607047000088ED00E003
:1026000000380240FFFFF6FE1030002470B503468C
:1026100000240BB9002070BD58881D88A84201DB3A
:10262000002058801BE05D889888401E854206D0B7
:10263000988828B95D881888401E854200D113E02B
:1026400011F8015B5E88701C588098688555601C85
:10265000C4B258881D88A84201DB00205880101E93
:10266000A2F10105AAB2DED100BF2046D3E7704730
:102670000F48006820F080700D4A10601046006816
:1026800040F0807010600B48006820F00100094A9B
:1026900010601046006840F001001060002050609B
:1026A0001046416800BF00BF02484068401A7047AA
:1026B000FCED00E0001000E01CB500200121034605
:1026C0000246CDE900104903014800F017F91CBD8E
:1026D000000802401CB5032000210B460122CDE971
:1026E00000102021034800F009F94FF400100149BF
:1026F00088611CBD0000024030B502460B460E4CFE
:10270000A24207D20D490D4C0834141B1825B4FB06
:10271000F5F006E008490839074C141B1825B4FBEE
:10272000F5F0042801D3091D001F03F03D04044DFA
:102730002D5CAC400C6030BD10640240086002406B
:10274000425800087047704770B502460C46002199
:10275000002300200E4DAA4207D20E4B0D4D10351E
:10276000551B1826B5FBF6F106E0094B103B084D4A
:10277000551B1826B5FBF6F1042901D31B1D091FB3
:102780001868054D6D5CE84000F03D0070BD00002C
:10279000106402400060024042580008704770B563
:1027A00004463D212046FFF7CFFF85B23D2120465C
:1027B000FFF7A2FF05F0200030B1206800F0100004
:1027C00010B1204600F029F805F0100030B1206863
:1027D00000F0080010B12046FFF7E0FF05F0080008
:1027E00030B1206800F0040010B1204600F016F867
:1027F00005F0040030B1206800F0020010B120465E
:10280000FFF7A0FF05F0010030B1606900F0800023
:1028100010B12046FFF797FF70BD70477047014623
:102820004FF40030081AC0F38F20704700B50246FD
:102830001046FFF7F4FF012101FA00F00249096890
:1028400008430149086000BD303802402DE9F043DB
:1028500004460E461546DDE907892046FFF7DFFFEF
:10286000C7B2002243E001209040304000B93CE074
:10287000214830F817000121914008431E4921F8F2
:102880001700E0684FEA420C032101FA0CF188437B
:10289000510008FA01F10843E06020684FEA420C59
:1028A000032101FA0CF18843510005FA01F10843B4
:1028B0002060012D01D0022D16D1616801209040C9
:1028C00080B221EA000003FA02F189B20843606095
:1028D000A0684FEA420C032101FA0CF18843510031
:1028E00009FA01F10843A06000BF501CC2B2102ACF
:1028F000B9DBBDE8F0830000600000202DE9FC4357
:1029000005460C4616461F46DDE909890CB9BDE8A7
:10291000FC832846FFF78AFF3B463246214628467D
:10292000CDE90089FFF792FF00BFF0E72DE9FC47F2
:1029300005460E4617469846DDE90A9A0EB9BDE8E7
:10294000FC872846FFF772FF00241AE00120A04010
:10295000304000B914E0E10805F1200050F82100F2
:102960006107CA0E0F21914088436107C90E0AFA18
:1029700001F10843E20805F1200141F8220000BFFF
:10298000641C102CE2D33B46022231462846CDE996
:102990000089FFF75BFF00BFD1E7000000B593B0EF
:1029A00000BF2648006840F080502449086008466F
:1029B000006800F08050019000BF00BF00BF2048B9
:1029C000006840F440401E4908600846006800F472
:1029D0004040019000BF00BF012002900390002002
:1029E00005904FF4800109910220089008210A9176
:1029F0004FF4C8710B9104210C9107210D9102A88D
:102A0000FEF77CFF10B1012013B000BD02200F9033
:102A10000020109007200E900E9840F008000E90B5
:102A20004FF4805011900020129006210EA8FEF75E
:102A30006BFD08B10120E7E70020E5E740380240E0
:102A4000007000401CB504464CB907200321012347
:102A50000022CDE9001049020A48FFF767FF012C68
:102A600009D10720032101230022CDE90010C02154
:102A70000548FFF75BFF032C03D10721034800F053
:102A800089F91CBD00000240000402400010014012
:102A900001B501216846FEF7D1F808BD1CB5044612
:102AA0004CB90720032101230022CDE900100C219D
:102AB0000A48FFF73BFF012C09D10720032101231E
:102AC0000022CDE9001060210548FFF72FFF032CFD
:102AD00003D10721034800F05DF91CBD000002404E
:102AE000000C0240004400401CB504464CB90820CC
:102AF000032101230022CDE90010C0210448FFF783
:102B000015FF032C03D10821024800F043F91CBD36
:102B1000000802400014014038B505460C461E4826
:102B2000056000BF0068006800901B4800684068AE
:102B3000009000BF00BF00BF174800680068009009
:102B4000154800684068009000BF00BF00BF1248F1
:102B5000006800680090104800684068009000BF5E
:102B600000BF00BF0C480068006800900A48006879
:102B70004068009000BF00BF00BF074800680068C1
:102B80000090054800684068009000BF00BF2046E4
:102B9000FEF73EFC38BD0000F40000200146064A66
:102BA000914200D10020054A914200D10120044AFF
:102BB000914200D1062070470010014000440040BF
:102BC000001401402DE9F04F91B004460D46164621
:102BD0001F46DDE91BABDDF868904A4884421FD1EF
:102BE00000BF4948006840F01000474908600846A7
:102BF000006800F01000009000BF00BF424820387D
:102C0000006840F01000404920390860084600681C
:102C100020F0100008602846FFF714FF4FF0250849
:102C20003A48844221D100BF3748001F006840F471
:102C300000303549091F08600846006800F400307C
:102C4000009000BF00BF30482438006840F40030D6
:102C50002D49243908600846006820F400300860D7
:102C60002846FFF71BFF4FF02608294884421FD152
:102C700000BF2548006840F020002349086008464E
:102C8000006800F02000009000BF00BF1E48203800
:102C9000006840F020001C492039086008460068A0
:102CA00020F0200008602846FFF71EFF4FF047087D
:102CB000019402960797CDF81890CDF814A0CDF89E
:102CC00010B01D980390002108914046FEF7AEFB1E
:102CD0002046FFF763FF0246062100904046FEF7BC
:102CE000C0FB4046FEF7B0FB4046FEF791FB01A853
:102CF000FFF720F8E06840F02000E06011B0BDE888
:102D0000F08F0000001001404438024000440040B1
:102D10000014014013B50446012201A92046FFF723
:102D200075FC1CBD7FB504460D4616461648844208
:102D30000BD100200C23CDE900300290034632462F
:102D4000294603902046FFF73DFF104884420BD1EF
:102D500000200C23CDE9003002900346324629467C
:102D600003902046FFF72EFF094884420BD1002034
:102D70000C23CDE9003002900346324629460390E9
:102D80002046FFF71FFF7FBD0010014000440040B8
:102D900000140140704700002DE9F0410446002571
:102DA0002068056925F44055E06805432068056101
:102DB0002068C56849F20C6085432169A068084312
:102DC00061690843E169084305432068C5602068DC
:102DD000456925F44075A069054320684561E069AF
:102DE000B0F5004F72D173492068884203D0724910
:102DF0002068884234D1FEF711FD00EBC00101EBE1
:102E0000001061684900B0FBF1F06421B0FBF1F6FD
:102E1000FEF704FD00EBC00101EB00106168490002
:102E2000B0FBF1F7FEF7FAFC00EBC00101EB00107C
:102E300061684900B0FBF1F06421B0FBF1F000EBF8
:102E4000C00101EB0010A7EB8000322101EB001064
:102E50006421B0FBF1F066F31F1021688860A6E0E2
:102E6000FEF7C6FC00EBC00101EB001061684900F1
:102E7000B0FBF1F06421B0FBF1F6FEF7B9FC00EB1A
:102E8000C00101EB001061684900B0FBF1F7FEF7EB
:102E9000AFFC00EBC00101EB001061684900B0FB22
:102EA000F1F06421B0FBF1F000EBC00101EB001088
:102EB000A7EB8000322101EB00106421B0FBF1F0A0
:102EC00066F31F102168886071E0FFE739492068C8
:102ED000884203D038492068884234D1FEF79EFCEE
:102EE00000EBC00101EB001061688900B0FBF1F05C
:102EF0006421B0FBF1F6FEF791FC00EBC00101EBA1
:102F0000001061688900B0FBF1F7FEF787FC00EB69
:102F1000C00101EB001061688900B0FBF1F0642191
:102F2000B0FBF1F000EBC00101EB0010A7EB80005B
:102F3000322101EB00106421B0FBF1F066F31F10A9
:102F40002168886033E0FEF753FC00EBC00101EB21
:102F5000001061688900B0FBF1F06421B0FBF1F66C
:102F6000FEF746FC00EBC00101EB00106168890030
:102F7000B0FBF1F7FEF73CFC00EBC00101EB0010E9
:102F800061688900B0FBF1F06421B0FBF1F000EB67
:102F9000C00101EB0010A7EB8000322101EB001013
:102FA0006421B0FBF1F066F31F1021688860BDE872
:102FB000F0810000001001400014014010B50748E6
:102FC000006800F0200020B104494968C8B2FFF74A
:102FD0005FFD25210148FFF79FFD10BD0010014056
:102FE00010B50848006800F0200030B10548001D09
:102FF0000068C1B20448FFF78DFE26210148FFF7A3
:103000008BFD10BD004400401C00002010B5084896
:10301000006800F0200030B10548001D0068C1B212
:103020000448FFF777FE47210148FFF775FD10BD03
:10303000001401403000002000BFFEE70FB4054B34
:1030400010B503A9044A029801F0D2FE10BC5DF845
:1030500014FB0000495500085000002003B40198FB
:103060004100009850EAC12018BF04204A0D18BF43
:1030700040F0010040F2FF72B2EB515F08BF40F038
:103080000200012808BF052002B0704700000000C0
:1030900070B59B482DED020B2DED068B079D25F09D
:1030A0000044A04218DC9748844202DC0AD106980A
:1030B00040B19DED060BBDEC068B02B0BDE8704043
:1030C00001F07ABD002DCCBF9FED8F0B9FED900BD3
:1030D000BDEC068B02B070BD8F48A04215DD8F4855
:1030E000A042D8BF4FF0FF3458DD9DED060B51ECE8
:1030F000100BFFF7B3FF042808BF01F091FD9DED11
:10310000060BBDEC068B02B070BD9DED060B51ECBD
:10311000100B02F00CFACDE9060181489FED828B7D
:10312000A0423CDD8248A0421FDD00249FED82AB1F
:103130009DED060B53EC1A2B51EC100BFDF783F8A9
:103140009DED060B41EC190B53EC1A2B51EC100BB7
:10315000FDF720F953EC182BFDF716F953EC192B5A
:10316000FDF7C2FACDE9060149E09DED060B012409
:1031700053EC182B51EC100BFDF765F89DED060B89
:1031800041EC190B53EC182B51EC100BFDF7FCF82C
:1031900053EC192BFDF7A8FACDE906012FE068489A
:1031A000A0421FDD02249FED689B9DED060B53ECB2
:1031B000192B51EC100BFDF7EDF853EC182BFDF724
:1031C00042F89DED060B41EC180B53EC192B51EC1A
:1031D000100BFDF7D9F853EC182BFDF785FACDE964
:1031E00006010CE09DED060B032453EC102B9FED24
:1031F000580B51EC100BFDF777FACDE906019DED68
:10320000060B53EC102B51EC100BFDF7C3F841ECFF
:10321000180B53EC182BFDF7BDF841EC190B4E4879
:103220000621B0EE490AF0EE690A784401F098FBF5
:1032300053EC182B51EC100BFDF7ACF841EC180BCC
:103240004648B0EE490AF0EE690A0521784401F0DB
:1032500087FB53EC192B51EC100BFDF79BF841EC5D
:10326000100B51EC180B53EC102B002C0EDAFCF762
:10327000EAFF9DED061B53EC112BFDF78BF89DED3E
:10328000061B53EC112BFDF782F835E0FCF7DBFF52
:103290009DED061B53EC112BFDF77CF841EC100B58
:1032A0002F48784400EBC40090ED001B51EC100B4C
:1032B00053EC112BFDF768F89DED061B53EC112B19
:1032C000FDF762F841EC100B2648784400EBC4008F
:1032D00090ED001B51EC100B53EC112BFDF757F840
:1032E00041EC100B002DA2BFBDEC068B02B070BDEF
:1032F00051EC100B81F0004141EC100B01E7000094
:10330000000010440000F07F182D4454FB21F93FC9
:10331000182D4454FB21F9BF0000DC3F0000203E83
:103320000000F33F00000000000000000000F03F3C
:103330000000E63F00000000000000000000004028
:103340000080034000000000000000000000F83F83
:10335000000000000000F0BF1A270000D026000087
:103360005A2600001226000070B56B4E2DED040B9E
:103370002DED028B82B0DDF81CC0DDE905235C4237
:103380002CF000411C4341EAD474049D22F000401B
:10339000B44205D86C422C4340EAD474B4420BD9F1
:1033A0009DED061B9DED040B02B0BDEC028B04B03D
:1033B000BDE8704001F00ABCACF14054A4F17F6458
:1033C0001C430BD0022404EAAC7444EAD2740543D3
:1033D0009FED538B9FED542B07D015E09DED040B13
:1033E00051EC100B02F09BF842E0002C11BF012CB5
:1033F0009DED040B02B0BDEC028B04BF04B070BDA8
:10340000022C38D0032C3BD00B439FED491B9FED82
:103410004A0B0AD0B14218D1B04209D121F0804103
:1034200020F08040079105900FE0002A15DA10E0A7
:10343000434B7B44002C08BF93ED000B0DD0012CB7
:1034400010D0022C17D0032C1AD0B0421DD1002A64
:1034500003DAB0EE410AF0EE610A02B0BDEC028B75
:1034600004B070BD93ED000B51EC100B81F00041E6
:1034700041EC100BF1E7B0EE480AF0EE680AECE719
:10348000B0EE420AF0EE620AE7E7401A00153C2867
:10349000C8BF8DED000B19DCBCF1000FBEBF10F1F1
:1034A0003C0F9FED290B8DED000B0FDB9DED060B07
:1034B00053EC102B9DED040B51EC100BFDF714F9A0
:1034C00002F035F802F02BF8CDE90001002C08BF1E
:1034D0009DED000BC1D0012C10D0022C9FED1C0BD8
:1034E00053EC102B9DED000B51EC100B0DD0FCF7A5
:1034F0004BFF53EC182BFCF747FFB9E7019880F01E
:10350000004001909DED000BA7E7FCF73DFF53EC59
:10351000182BFCF73CFFABE70000F07F0000000039
:10352000182D4454FB210940182D4454FB2109C097
:10353000182D4454FB21F9BF182D4454FB21F93FA9
:1035400072250000000000000000000000000000E4
:10355000075C143326A6A13C10B52F499FED2C1B08
:103560002DED020B84B0059820F000408842D8BFB2
:103570009DED040B2DDD2949884209D1049840B9FD
:103580004FF0010001F06CFB01F02AFB06B010BD0A
:1035900005DB9DED040B01F00FFB06B010BD684686
:1035A0009DED040B00F008FF10F0030004BF9DED3B
:1035B000021B9DED000B0CD001280ED09DED021BCF
:1035C0009DED000B022817D0012001F045FA06B04E
:1035D00010BD01F00DF906B010BD9DED021B9DED73
:1035E000000B012001F038FA51EC100B81F0004182
:1035F00006B041EC100B10BD01F0FAF851EC100BC5
:1036000081F0004106B041EC100B10BD000000003D
:103610000000000000000000FB21E93F0000F07FF7
:103620002DE9F04D2DED040B2DED0E8B96B0DDE95F
:103630002550279CDDF890A025F0004624F0004896
:10364000BAF1000F14BF0121002101EB4502FC4932
:1036500053184A1093422AD3002814BF0123002391
:1036600003EB44030B44F7498B4220D358EA000193
:103670009FEDF59B76D0DFF8D8B35D4503D1BAF165
:10368000000F05D188E0BAF1000F08BF002100D07B
:10369000012101EB450111F5001F08D8002814BFD6
:1036A0000121002101EB440111F5001F0BD99DED13
:1036B000261B9DED240B16B0BDEC0E8B04B0BDE8AF
:1036C000F04D01F083BA0027002DBCBFE1498845C9
:1036D00021DAE1498845A8BF02271CDAC3451ADC74
:1036E000DE4901EB2851142908DDC1F1340220FA2A
:1036F00002F101FA02F282420DD108E058B9C1F19B
:10370000140228FA02F101FA02F2424503D101F053
:103710000101C1F1020756EA0A0124D1002C22DA84
:10372000002D18BF022F01D0012F0AD0022001F076
:1037300097FA16B0BDEC0E8B04B0BDE8F04D01F069
:1037400023BA022001F08CFA01F01EFA51EC100BA2
:1037500081F0004141EC100B16B0BDEC0E8B04B0B3
:10376000BDE8F08D18E09FEDBEAB9FEDBF8B00284C
:1037700071D1B848804522D105F1804010F5801004
:1037800008BFBAF1000F07D0B3450ADC002CA8BF70
:103790009DED260BE0DA0DE0B0EE490AF0EE690A85
:1037A000DAE7002C06DA9DED260B51EC100B81F0C8
:1037B00000416FE0AE48784490ED000BCCE7D8456F
:1037C0004DD1002C48DA2EB186423AD1BAF1000F21
:1037D00042D126E0BAF1000F13D0022001F040FAE6
:1037E00001F00EFA8DED020B9DED240B8DED000B1B
:1037F00010EE900A039961F31E0003909DED020BF9
:10380000AAE78DED02AB9DED240B1AEE901A10EE97
:10381000900A8DED000B61F31E0003909DED020BED
:103820009AE78DED028B9DED240B18EE901A10EEA9
:10383000900A8DED000B61F31E0003909DED020BCD
:103840008AE709DA9DED240B51EC190B53EC102B90
:10385000FCF74AFF1EE020E09DED240B7CE786424A
:103860001BDAB4F1804F0DD0A4F10050B0F1FF503D
:1038700013D1002D11DB9DED240B51EC100B01F049
:10388000A1FF07E09DED240B53EC102B51EC100B26
:1038900000F0C2BC41EC100B5EE79DED240B51EC37
:1038A000100B01F044FEBAF1000FCDE90E0142D138
:1038B0009FED710B46B3A6F1E040B0F17F600CD0F4
:1038C0005E4538D1002D00DAA7B3022F0CBF0120CE
:1038D0004FF0FF30FCF7DFFFDCE7002D01DD002CAF
:1038E0000DDA002D01DD002C1FDB002D16DA002C77
:1038F00014DB012F08BF9FED620B3FF42DAFB0EE3C
:103900004A0AF0EE6A0A27E7022F18BF002D0CD0F2
:10391000012F0AD1002DFFF61FAF06E0002DB8BF22
:10392000002C08DA012F3FF417AFB0EE480AF0EE92
:10393000680A11E71BE0012000EBE57050EA07017F
:1039400015D0791EB0EE498AF0EE698A084308BFA7
:103950009FED4D8B4E480025804570DD4D494E480A
:10396000884514DDB0420DDB002C19DB2FE001206F
:1039700001F076F916B0BDEC0E8B04B0BDE8F04D49
:1039800001F02EB9B34502DC002C09DC1FE08642B1
:1039900002DA002C1BDA03E05E452BDD002C16DD7D
:1039A000022001F05DF901F02BF98DED020B53ECD3
:1039B0001A2B51EC180BFCF7EDFCCDE90001039933
:1039C000019861F31E0003909DED020BC4E60220F6
:1039D00001F046F901F024F910EE901A18EE900A61
:1039E0008DED020B8DED008B61F31E0003909DEDBC
:1039F000020BB1E69DED0E0B53EC192B51EC100BA5
:103A0000FCF7C2FC9FED260BCDE9080153EC102B0F
:103A10009DED080B51EC100BFCF7BCFC9FED221B3D
:103A200053EC112BFCF7B3FC9DED081B53EC112B51
:103A3000FCF7B0FC9FED1E1B53EC112B3CE08CE01F
:103A4000FFFF1F00FFFF0F00000000000000F03F1D
:103A50000000F03F0000F07F0000404301FCFFFF4A
:103A6000000000000000F07F0000000000000000E7
:103A7000EE210000000000000000000000000080B7
:103A8000000000000000F0FF000000000000F0BF98
:103A90000000E0410000F043FFFFEF3F00000000A6
:103AA000000000000000D03F555555555555D53FF5
:103AB000000000000000E03FFCF769FC9DED080BF2
:103AC00041EC1A0B53EC102B51EC100BFCF762FC81
:103AD00053EC1A2BFCF75EFC41EC1A0B9FEDFE0B2E
:103AE00053EC102B9DED080B51EC100BFCF752FC26
:103AF00041EC1B0B9FEDFA0B51EC1A0B53EC102B06
:103B0000FCF748FC41EC1A0B9FEDF70B53EC102B24
:103B10009DED080B51EC100BFCF73CFC53EC1A2B01
:103B2000FCF732FC41EC1A0B51EC1B0B53EC1A2B3B
:103B3000FCF789FB0690CDE906519DED060B53EC91
:103B40001B2B51EC100BFCF71FFC53EC1A2BFCF752
:103B50001EFC41EC100B00F0A1B90020B6F5801F4F
:103B60000EDA9FEDE30B53EC102B9DED0E0B51EC99
:103B7000100BFCF70FFCCDE90E016FF034000E4680
:103B800000EB2650A0F2FF37C6F31300DA4940F0ED
:103B90007F6646F040568842D8BF002408DDD749EA
:103BA0008142C8BF012403DC0024A6F580167F1CD7
:103BB000D348784400EBC4000F9690ED00CB9DED08
:103BC0000E0B53EC1C2B51EC100BFCF7DDFB9DEDA9
:103BD0000E0B41EC1B0B53EC1C2B51EC100BFCF7A8
:103BE00032FB41EC100B51EC190B53EC102BFCF792
:103BF0007BFD41EC1D0B51EC1B0B53EC1D2BFCF71B
:103C0000C9FB41EC1A0BBF488DED10AB7844109501
:103C100090ED000B4FF0005040EA660000EB84404E
:103C20008DED080B00F5002009909DED080B53EC7D
:103C30001C2B51EC100BFCF7A7FB9DED0E1B53EC5E
:103C4000112BFCF7A4FB41EC100B53EC102B9DED5A
:103C5000100B51EC100BFCF79DFB9DED080B41EC9C
:103C60001C0B53EC102B9DED100B51EC100BFCF7C3
:103C700091FB53EC1B2BFCF78AFB53EC1C2BFCF742
:103C800083FB53EC1D2BFCF785FB41EC1C0B53EC29
:103C90001A2B51EC1A0BFCF77DFB41EC1B0B9A48DD
:103CA0000621B0EE4B0AF0EE6B0A784400F058FEA5
:103CB000B0EE401AF0EE601AB0EE41DAF0EE61DAE2
:103CC00053EC1B2B51EC1B0BFCF764FB53EC1D2B33
:103CD000FCF760FB9DED100B41EC1B0B53EC1A2B1A
:103CE00051EC100BFCF7AFFA53EC1C2BFCF752FB1A
:103CF00053EC1B2BFCF7A7FA9DED100B41EC1B0BB3
:103D000053EC102B51EC100BFCF744FB41EC1D0B5A
:103D10009FED7FEB53EC1E2BFCF795FA53EC1B2B1E
:103D2000FCF791FA0890CDE908519DED080B53EC92
:103D30001E2B51EC100BFCF727FB53EC1D2BFCF753
:103D400023FB53EC1B2BFCF722FB9DED080B41ECF6
:103D50001D0B53EC102B9DED100B51EC100BFCF7D1
:103D600019FB41EC1B0B53EC1A2B51EC1D0BFCF710
:103D700011FB9DED080B41EC1A0B53EC102B51EC91
:103D80001C0BFCF707FB53EC1A2BFCF75CFA41EC1D
:103D90001A0B51EC1B0B53EC1A2BFCF754FA0C903A
:103DA000CDE90C519DED0C0B53EC1B2B51EC100B82
:103DB000FCF7EAFA53EC1A2BFCF7E9FA41EC1B0B7F
:103DC0009FED550B53EC102B9DED0C0B51EC100B94
:103DD000FCF7E0FA41EC1A0B9FED510B51EC1B0B79
:103DE00053EC102BFCF7D6FA41EC1B0B9FED4E0B5E
:103DF00053EC102B9DED0C0B51EC100BFCF7CAFA99
:103E000053EC1B2BFCF71FFA41EC100B484878448D
:103E100000EBC40090ED001B51EC100B53EC112B88
:103E2000FCF711FA41EC1B0B3846FCF734FDCDE9E9
:103E3000080153EC1B2B51EC1A0BFCF704FA41EC74
:103E4000100B3C48784400EBC40090ED00CB51ECE3
:103E5000100B53EC1C2BFCF7F6F99DED081B53ECF3
:103E6000112BFCF7F0F90690CDE906519DED080BFA
:103E700053EC102B9DED060B51EC100BFCF784FA64
:103E800053EC1C2BFCF780FA53EC1A2BFCF77CFA52
:103E900053EC1B2BFCF77BFA41EC100B9DED261B22
:103EA00053EC102B8DED001B00959DED260B51EC76
:103EB000100BFCF76FFA9DED000B41EC1A0B53EC65
:103EC000102B9DED260B51EC100BFCF75DFA9DEDD0
:103ED000061B53EC112B2FE0000000604715F73F45
:103EE000FE822B654715F73F44DF5DF80BAE543E6D
:103EF00000000000000040438E9803007AB60B00DB
:103F0000A21C0000981D0000DA1B00000000000049
:103F10000000000000000840000000E009C7EE3F7C
:103F2000FD033ADC09C7EE3FF5015B14E02F3EBE0E
:103F3000661A0000201A0000FCF72CFA53EC1A2B2A
:103F4000FCF781F99DED060B41EC1A0B53EC102B9D
:103F50009DED000B51EC100BFCF71CFACDE90C01A8
:103F60009DED0C0B51EC1A0B53EC102BFCF76BF97D
:103F7000CDE902010C46AA498C422FDB611A0843A5
:103F800018D19DED0C0B53EC102B9DED020B51EC59
:103F9000100BFCF7F9F941EC1B0B9FEDA30B51EC57
:103FA0001A0B53EC102BFCF74EF953EC1B2BFCF7C0
:103FB0009BFC2DD2022000F053FE00F021FE10EEFB
:103FC000901A18EE900A8DED020B8DED008B61F3C7
:103FD0001E0003909DED020BFFF7BEBB944A24F038
:103FE0000041914214D39349214408437FF4EFAC3C
:103FF0009DED0C0B53EC102B9DED020B51EC100BB7
:10400000FCF7C2F953EC1A2BFCF76EFC7FF6DFAC21
:1040100024F000408849894A002601EB2051824261
:104020002BDA481C4FF4801121FA00F02044844A16
:10403000C0F30A517A44A1F2FF3192ED000B814A9C
:104040008DED080BCA4020EA0202C0F3130040F4D1
:104050008010C1F1140120FA01F60992002CB8BFBA
:1040600076429DED080B53EC102B9DED0C0B51ECA3
:10407000100BFCF789F9CDE90C019DED0C0B51EC0F
:104080001A0B53EC102BFCF7DEF89FED6F0B08902A
:10409000CDE9085153EC102B9DED080B51EC100BA2
:1040A000FCF778F941EC1B0B9FED690B53EC102BDF
:1040B0009DED080B51EC100BFCF76CF99DED0C0B12
:1040C00041EC1C0B53EC102B9DED080B51EC100B2D
:1040D000FCF75AF953EC1A2BFCF759F99FED5E1BCC
:1040E00053EC112BFCF756F953EC1C2BFCF7ABF8F7
:1040F00041EC1A0B51EC1B0B53EC1A2BFCF7A3F8F9
:10410000CDE902019DED020B53EC1B2B51EC100B82
:10411000FCF73AF953EC1A2BFCF739F99DED020B39
:1041200041EC1A0B53EC102B51EC100BFCF732F94D
:10413000CDE908014A489DED080B0521784400F0BF
:104140000FFC9DED081B51EC100B53EC112BFCF7F1
:1041500021F99DED021B53EC112BFCF718F9CDE969
:1041600006019DED020B53EC1A2B51EC100BFCF7E2
:1041700011F953EC1A2BFCF766F89FED3B0B41EC61
:104180001A0B53EC102B9DED060B51EC100BFCF7AA
:10419000FBF89DED060B41EC1B0B53EC102B9DED3A
:1041A000020B51EC100BFCF7F5F853EC1B2BFCF752
:1041B0009BFA53EC1A2BFCF7E7F89DED021B53EC2E
:1041C000112BFCF7E1F853EC192BFCF7E0F8CDE9E3
:1041D000020101EB065001150029C8BF039015DC50
:1041E0009DED020B324651EC100BFCF7ECFAFEF79A
:1041F00035FF042808BF00F013FD32469DED020B89
:1042000051EC100BFCF7DFFACDE902019DED020B3A
:1042100051EC180B53EC102BFCF7BCF8FFF73ABB32
:104220000000904000000000FE822B654715973C7F
:1042300000CC904000346F3F01FCFFFF0000E03FE6
:1042400070190000FFFF0F0000000000432EE63F42
:10425000396CA80C615C20BEEF39FAFE422EE63FB5
:10426000781700000000000000000000000000407F
:1042700010B52F499FED2C1B2DED020B84B0059836
:1042800020F000408842DCBF00209DED040B32DDB1
:104290002849884209D1049840B94FF0010000F044
:1042A000DFFC00F09DFC06B010BD05DB9DED040BAE
:1042B00000F082FC06B010BD68469DED040B00F0D6
:1042C0007BF810F0030011D0012818D09DED021BDF
:1042D0009DED000B02281AD000F08AFA51EC100B69
:1042E00081F0004106B041EC100B10BD9DED021BAA
:1042F0009DED000B012000F0AFFB06B010BD9DED61
:10430000021B9DED000B00F073FA06B010BD0120FA
:1043100000F0A2FB51EC100B81F0004106B041EC23
:10432000100B10BD000000000000000000000000A5
:10433000FB21E93F0000F07F00B52DED048BB0EECE
:10434000409AF0EE609A83B051EC190BFCF752FAE8
:1043500041EC180B18EE100A18EE901A8DED008B38
:10436000002818BF0120084320F00040C0F17F6002
:1043700000F1E040C00F14D019EE101A19EE900AA7
:104380008DED009B002918BF0121084320F000405B
:10439000C0F17F6000F1E040C00F04BF012000F0D9
:1043A0005FFCB0EE480A03B0F0EE680ABDEC048B87
:1043B00000BD0000000000002DE9F14F04462DED86
:1043C000020B2DED088B8AB09FEDE70B80ED020B01
:1043D000139EE74826F0004585420ADC9DED120B4E
:1043E000002084ED000B0AB0BDEC088B03B0BDE8E3
:1043F000F08FE0489FEDE0AB9FEDE1BBA84247DDC9
:10440000E14F9FEDE39B9FEDE48B9DED120B53EC91
:104410001A2B51EC100B002E1CDDFBF7B5FF41EC05
:10442000100BBD4208D053EC1B2B51EC100BFBF7CB
:10443000ABFFC4E900010BE053EC192B51EC100B5E
:10444000FBF7A2FF53EC182BFBF79EFFC4E900011A
:104450000120C8E7FBF7F7FE41EC100BBD4208D086
:1044600053EC1B2B51EC100BFBF7EDFEC4E90001E4
:104470000BE053EC192B51EC100BFBF7E4FE53EC63
:10448000182BFBF7E0FEC4E900014FF0FF30AAE76C
:10449000C348A84279DB9DED120B51EC100B01F0E3
:1044A00046F841EC180B9FEDC00B53EC102BFBF7BB
:1044B00071FF9FEDBF1B53EC112BFBF7C4FEFCF704
:1044C0004DFA0746FCF7E7F941EC190B53EC1A2BB0
:1044D000FBF760FF53EC182BFBF759FF41EC180B6F
:1044E00053EC1B2B51EC190BFBF754FFDFF8C8A260
:1044F00041EC100B4FEA15580125FA4453EC102BF0
:1045000051EC180BFBF740FF032DC4E900013DD02F
:10451000C1F30A5005EB4511A8EB000011398142A7
:1045200034DA0AEB051BB0EE48AA9BED000BF0EE67
:1045300068AA53EC102B51EC190BFBF72BFF41EC45
:104540001B0B51EC1A0B53EC1B2BFBF71DFF41EC23
:10455000180B51EC1A0B53EC182BFBF715FF53EC0F
:104560001B2BFBF711FF9BED020B41EC1A0B53ECDD
:10457000102B51EC190BFBF70DFF53EC1A2BFBF72B
:1045800003FF41EC100B6D1CB8E70EE0002EA8BF36
:104590003846BFF628AF94ED000B51EC100B81F0BC
:1045A0000041C4E9000178421DE7C6F3130040F45E
:1045B000801EC6F30A50A0F2F530471100F01F0527
:1045C000C5F12000DDF848B0089000200690079063
:1045D0000520EC467949002D07EB0002794408BF1D
:1045E00051F8221009D051F8223001EB8201AB4082
:1045F0004A68089922FA01F11943A1FB0E26A1FB92
:104600000B131A449A4234BF0123002303EB06081C
:104610000CEB8003D3E901A60E448E4234BF012186
:10462000002192448A4411B1924502D903E0924597
:1046300001D2012100E00021C3E901A641444CF868
:104640002010011EA0F10100C4DC029800F100500E
:10465000850F0298DDE903678000DDF81480FCF720
:104660001AF941EC1A0B3046FBF706FF9FED541B7D
:1046700053EC112BFBF78EFE41EC1B0B3846FBF77E
:10468000FBFE9FED511B53EC112BFBF783FE41EC1E
:10469000180B4046FBF7F0FE9FED4D1B53EC112B22
:1046A000FBF778FE41EC190B51EC180B53EC192B6E
:1046B000FBF7C9FD53EC1B2BFBF7C5FD53EC1A2B85
:1046C000FBF7C1FDCDE90801002008909DED080B26
:1046D00053EC1A2B51EC100BFBF756FE53EC1B2B33
:1046E000FBF752FE53EC182BFBF74EFE53EC192B45
:1046F000FBF74DFE9FED381B53EC112BFBF74AFEE9
:104700009FED370B41EC180B53EC102B9DED080B74
:1047100051EC100BFBF73EFE53EC182BFBF793FD0F
:104720009FED310B41EC180B53EC102B9DED080B5A
:1047300051EC100BFBF72EFE53EC182BFBF783FD0F
:1047400041EC100B139810F0004F06D06D4251EC65
:10475000100B81F0004141EC100B284684ED000B5A
:1047600041E6000000000000000000000000000022
:10477000FB21E93F7CD9024000004054FB21F93F76
:104780003163621A61B4D03DFB21F93F00000000A3
:104790000000601A61B4D03D7370032E8A19A33BE8
:1047A000FB2139410000000083C8C96D305FE43F40
:1047B000000000000000E03FB21400000014000000
:1047C000000000000000103E000000000000103C4F
:1047D000000000000000103A182D4454FB21F93D60
:1047E0003326A611460B113C00000054FB21F93D75
:1047F00010B52DED040B2DED088B82B0B0EE419A73
:10480000F0EE619A0B9820F000449FED4BABB4F1B1
:10481000795F11DA9DED0A0B51EC100BFCF79EF855
:10482000002801BFB0EE4A0AF0EE6A0A02B0BDEC01
:10483000088B04BF04B010BD9DED0A0B53EC102B88
:1048400051EC100BFBF7A6FD41EC180B3C48062180
:10485000B0EE480AF0EE680A784400F081F853ECB4
:10486000182B51EC100BFBF795FD9DED0A0B41EC5D
:104870001B0B53EC192B51EC100BFBF78BFD41EC90
:10488000190B53EC1B2B51EC180BFBF783FD53EC6E
:10489000192BFBF779FD9FED2C0B41EC190B53EC19
:1048A000102B51EC180BFBF775FD41EC100B284851
:1048B000844210DA53EC192B51EC100BFBF764FD1A
:1048C00053EC1A2BFBF763FD41EC100B02B0BDEC6F
:1048D000088B04B010BD1F48A042BCBF9FED1E1B3B
:1048E0008DED001B06DBA4F5001001900020009068
:1048F0009DED001B51EC100B53EC112BFBF744FD0D
:104900009DED000B41EC180B53EC102B51EC1A0BE6
:10491000FBF73AFD41EC1A0B53EC192B51EC180B39
:10492000FBF732FD53EC1A2BFBF731FD41EC100B7A
:10493000CCE7000000000000000000000000F03F95
:104940001C11000000000000000000000000E03F1B
:104950003333D33F0000E93F000000000000D23FA6
:1049600070B504462DED028B4D1E00EBC500B0EE78
:10497000408AF0EE608A90ED000B35F0060017D00B
:1049800053EC182B51EC100BFBF704FD41EC100B12
:104990006D1E04EBC50090ED001B51EC100B53ECA9
:1049A000112BFBF750FC41EC100B35F00600E7D162
:1049B000022D36D0042D1CD0062D1CBFBDEC028B61
:1049C00070BD53EC182B51EC100BFBF7E3FC94ED8E
:1049D0000A1B53EC112BFBF736FC53EC182BFBF79F
:1049E000D9FC94ED081B53EC112BFBF72CFC41EC8C
:1049F000100B53EC182B51EC100BFBF7CBFC94ED88
:104A0000061B53EC112BFBF71EFC53EC182BFBF78A
:104A1000C1FC94ED040B53EC102BFBF714FC41ECA0
:104A2000100B53EC182B51EC100BFBF7B3FC94ED6F
:104A3000021B53EC112BFBF706FC53EC182BFBF776
:104A4000A9FC94ED001B53EC112BFBF7FCFBBDEC18
:104A5000028B41EC100B70BD31B504462DED040BFB
:104A60002DED0A8BB0EE41BAF0EE61BA0B989DEDD8
:104A70000A0B20F00040B0F1795F0DDA51EC100B19
:104A8000FEF7ECFA042808BF00F0CAF89DED0A0B07
:104A9000BDEC0A8B05B030BD53EC102B51EC100B64
:104AA000FBF778FC41EC180B9DED0A0B53EC182B2F
:104AB00051EC100BFBF76EFC41EC190B2C48B0EEDF
:104AC000480AF0EE680A05217844FFF749FF9FED98
:104AD0002ACBB0EE40AAF0EE60AA9CB353EC1C2B9C
:104AE00051EC190BFBF756FC41EC1C0B53EC1A2B49
:104AF00051EC190BFBF74EFC9FED210B41EC190B10
:104B000053EC102B51EC1B0BFBF744FC53EC192B13
:104B1000FBF73AFC53EC182BFBF73CFC53EC1B2B3C
:104B2000FBF732FC53EC1C2BFBF72EFC9DED0A1B14
:104B300053EC112BFBF72BFCBDEC0A8B05B041ECC1
:104B4000100B30BDFFE753EC1A2B51EC180BFBF7A1
:104B500021FC53EC1C2BFBF776FB53EC192BFBF7DA
:104B600019FC9DED0A1B53EC112BFBF76CFBE3E7E3
:104B7000AC0F000000000000495555555555C5BF04
:104B8000000000000000E03F9FED070B10B553EC64
:104B9000102B9FED070B51EC100BFBF7A5FD41EC23
:104BA000100B10BD0000000000000000000000001D
:104BB000000000000000F03F10B553EC102B51EC4A
:104BC000100BFBF740FB41EC100B10BD10B553EC84
:104BD000112B51EC100BFBF736FB41EC100B10BD09
:104BE0009FED050B10B553EC102B51EC100BFBF7A0
:104BF0007BFD41EC100B10BD000000000000000028
:104C00009FED050B10B553EC102B51EC100BFBF77F
:104C1000C1FB41EC100B10BD000000000000007053
:104C20009FED050B10B553EC102B51EC100BFBF75F
:104C3000B1FB41EC100B10BD0000000000000010A3
:104C400002E008C8121F08C1002AFAD17047704755
:104C5000002001E001C1121F002AFBD170470000B3
:104C600001490860704700005C0000202DE9FF5FEB
:104C700082B00021DDE90430020DDDF840B00343CD
:104C800018D044F61050A2F2FF3242431514119886
:104C900001281FD0A5EB0B00401C5FEA000A4FF073
:104CA00000064E4FDFF83891B046504615D5CAF190
:104CB000000413E0119801244AA3012801D16FEAEE
:104CC0000B010298119AC0E90031C0E9024206B016
:104CD000BDE8F09FCBF10000DFE704460021404A29
:104CE000491842EB0450CDE9001012E0E00707D06C
:104CF00032463B4640464946FBF74CFB80468946D8
:104D000032463B4610461946FBF744FB06460F4623
:104D10006410002CEAD1DDE90401DDE90023BAF1D9
:104D2000000F06DAFBF736FB42464B46FBF732FB39
:104D300005E0FBF7D9FC42464B46FBF7D5FC0446A1
:104D40000E460022284BFBF7CFFD03D84FF0FF3073
:104D5000014607E00022254B20463146FBF773FA57
:104D6000FBF7AAFD102409E0002C0ADB0A2200232D
:104D7000FBF7D4FB039B30321A55641E50EA010244
:104D8000F2D1641C039AC4F111031444119A012A4C
:104D900003D0012208430DD10AE0084304D00020CB
:104DA0004FF0110B119072E7A3EB0B056D1E0DE098
:104DB0005B4504DD4FF0000205F1010504E003DA74
:104DC0004FF00002A5F10105002AECD002981199DC
:104DD000C0E90231C0E9004579E700000000144055
:104DE0000000F03F300000000000F0430000E03F12
:104DF0002DE9FF4F95B09B468946064600250FE2F8
:104E0000252877D100242746F84A0121059400E09F
:104E1000044316F8013F203B01FA03F01042F7D19A
:104E200030782A2811D06FF02F033078A0F13002AB
:104E3000092A16D8059A44F0020402EB820203EB19
:104E400042021044761C0590EFE759F8042B0592B6
:104E5000002A03DA504244F40054059044F002045E
:104E6000761C30782E2816D116F8010F44F0040471
:104E70002A280DD06FF02F023078A0F13003092BD3
:104E800009D807EB870302EB4303C718761CF3E747
:104E900059F8047B761C30786C280FD006DC4C283F
:104EA00017D068280DD06A2814D104E0742810D0D7
:104EB0007A280FD10DE044F400140AE044F4801481
:104EC00001E044F440147278824202D104F5801467
:104ED000761C761C307866280BD013DC582877D0E7
:104EE00009DC002875D04528F6D04628F4D047289C
:104EF0001AD19DE118E0632835D0642879D065285F
:104F000012D195E1702873D008DC6728F1D06928A8
:104F10006FD06E280DD06F2806D1B5E073282CD045
:104F2000752875D0782874D05A46179990476D1C0B
:104F300075E1C4F30250022809D003280DD0D9F836
:104F4000001004280DD00D6009F1040967E1D9F8BB
:104F50000010EA17C1E90052F6E7D9F800100D80F9
:104F6000F2E70D70F0E719F8041B8DF8001000202F
:104F70008DF80100EA46012003E059F804AB4FF038
:104F8000FF3061074FF0000102D40DE008F101018C
:104F90008846B9420FDA8045F8DB1AF80810002974
:104FA000F4D108E008F1010188468142FADB1AF8E1
:104FB00008100029F6D105985B46A0EB08072146AA
:104FC0003846179A00F094FA284400EB080507E0E9
:104FD0004DE029E10DE01AF8010B5A461799904768
:104FE000B8F10108F7D25B4621463846179A13E11B
:104FF00042E00A220092C4F302524FF0000A022A51
:1050000008D059F804CB032A4FEAEC710AD00DE01E
:1050100029E02AE009F1070121F00702F2E802C1C4
:10502000914609E00FFA8CFC4FEAEC71042A03D197
:105030004FFA8CFC4FEAEC71002907DA0A4600218E
:10504000DCF1000C61EB02012D2202E0220504D507
:105050002B228DF80420012203E0E20701D0202258
:10506000F7E7904659E00A2102E010220DE01021F6
:105070004FF0000A00910BE010224FF0000A44F0BC
:1050800004040827009203E008224FF0000A00926F
:10509000C4F30252022A05D059F804CB0021032A96
:1050A00008D009E009F1070121F00702F2E802C186
:1050B000914605E01FFA8CFC042A01D10CF0FF0C8C
:1050C0004FF00008220728D5702806D0009B83F0F7
:1050D000100353EA0A0305D00EE040228DF80420A5
:1050E000012208E05CEA010206D030228DF804209B
:1050F0008DF8050002229046009B83F0080353EAD6
:105100000A030AD15CEA010201D1620705D5302207
:105110008DF804204FF001087F1E582804D034A0D9
:1051200003900EA802900DE036A0F9E753466046C2
:10513000009AFBF7F3F984460398825C0298401EBC
:10514000029002705CEA0100F0D1029806A9081AE8
:1051500000F1200A600702D524F4803400E0012722
:10516000574502DDA7EB0A0000E0002000EB0A0132
:10517000009005984144401A0590E00306D45B4630
:105180002146179A059800F0B3F90544002706E078
:1051900001A85A46C05D179990476D1C7F1C474572
:1051A000F6DBE0030CD55B462146179A059800F024
:1051B0009FF9054404E030205A46179990476D1C2A
:1051C0000099481E00900029F5DC08E00298029939
:1051D0005A460078491C0291179990476D1CBAF104
:1051E0000001AAF1010AF1DC65E1000009280100D3
:1051F000303132333435363738396162636465664D
:10520000000000003031323334353637383941420E
:10521000434445460000000000F058F90544761C60
:10522000307800287FF4ECAD19B02846BDE8F08F47
:10523000620700D4062709F1070222F0070CFCE8F8
:105240000223E14603F000485FEA080C02D00FF2A7
:10525000702C0DE05FEA045C02D50FF2682C07E0C9
:105260005FEAC47C02D00FF2602C01E0AFF2700C58
:105270004FF0FF3823F00043CDF850C065280CD024
:1052800006DC452809D046281DD047283DD13DE001
:10529000662818D067287ED138E00021112F01DB65
:1052A000112000E0781CCDE9000106A90EA8FFF747
:1052B000DDFCDDE90F010E9A03910021009207F158
:1052C000010A04914DE04FF000400097CDE9011034
:1052D00006A90EA8FFF7CAFCDDE90F0203920E9B98
:1052E00011990022DDF80CA00093049211B9791CE9
:1052F00000EB010AB7EB0A0004D4C0F1FF3007F15C
:10530000010A0490AAEB0700019044E0012F00DAA3
:1053100001270021112F01DD112000E03846CDE9E1
:10532000000106A90EA8FFF7A1FCDDE90F010E9A06
:105330000391002104910092BA4621070CD40399ED
:10534000514500DA8A46BAF1010F05DD009AAAF14B
:105350000101515C302908D0B84202DA10F1040F83
:1053600006DA0121CDE9011015E0AAF10101E9E712
:10537000002805DC049901440491AAEB000102E035
:10538000411C514500DD8A460499401A401C019099
:105390004FF000400290200704D40198504501DBF3
:1053A000CDF8048000208DF84F0002980DF14F07D2
:1053B000B0F1004F25D02B200E9002984FF002083C
:1053C00000280CDA404202902D200E9007E00A21BE
:1053D0000298FBF78DF83031029007F8011DB8F103
:1053E0000001A8F10108F2DC02980028EFD1791E33
:1053F0000E980870307800F0200040F0450007F863
:10540000020D12A8C01B00F107081498007800B123
:10541000012000EB0A01019801EBE071059841447D
:10542000401A401E0590E00306D45B462146179AB9
:10543000059800F05DF805441498007818B15A46B4
:10544000179990476D1CE00324D55B462146179AB7
:10545000059800F04DF805441CE00498002807DB8F
:10546000DDE90301884203DD0098405C179901E003
:10547000179930205A469047049805F10105401CC1
:1054800004900198401E019004D12E205A4617998D
:1054900090476D1CBAF10001AAF1010ADDDC05E0BC
:1054A00017F8010B5A46179990476D1CB8F1000187
:1054B000A8F10108F4DC5B462146179A0598ABE693
:1054C0002D0000002B000000200000002DE9F0411D
:1054D000044600251E461746880404D405E03946D4
:1054E0002020B0476D1C641EF9D52846BDE8F08128
:1054F0002DE9F041044600251E469046C80301D51B
:10550000302700E02027880404D505E041463846CE
:10551000B0476D1C641EF9D52846BDE8F08110B572
:1055200041EC100BFDF7B4FD51EC100B10BD82B037
:10553000CDE9000121F0004001909DED000B02B08B
:1055400051EC100B7047000008B5C2B200920C4A33
:10555000D26802F400528AB100BF094A126802F010
:105560008002002AF9D09DF80020054B5A6000BF48
:10557000034A126802F08002002AF9D000BF08BD79
:10558000004400402DED068B84B0FDF707FAFBF7D1
:105590000DFFFDF79FF8FDF78FF8FDF769F84FF461
:1055A000612200214248FDF7BDFB42A244A147A071
:1055B000FDF744FD4FF4E13200215148FDF7B2FB05
:1055C0005048FBF763FD9FED500A504880ED020AFA
:1055D0009FED4F0A80ED030A69E04A48FBF768FD3A
:1055E0004C49087008460078042860D1454890F876
:1055F000C50000285BD0434890ED020A10EE101A57
:105600000846FAF746FF41EC180B3E4890ED010AB8
:1056100010EE101A0846FAF73CFF41EC190B394816
:1056200090ED000A10EE101A0846FAF732FF41EC2E
:105630001A0B8DED028B8DED009B53EC1A2B36A0CF
:10564000FDF7FCFC2F4890ED000A304880ED000A81
:105650002C4890ED010A2D4880ED010AFBF7FAFA7B
:10566000284890ED330A10EE101A0846FAF711FF99
:1056700041EC180B254890ED050A10EE101A08466B
:10568000FAF707FF41EC190B204890ED040A10EEE1
:10569000101A0846FAF7FDFE41EC1A0B8DED028B4D
:1056A0008DED009B53EC1A2B2A48FDF7C7FC94E7BD
:1056B0000044004030303A30353A313300000000C9
:1056C0004F63742032372032303136004750532038
:1056D0004E4D4541207061727365723B20436F6D82
:1056E00070696C6564206461746520616E64207407
:1056F000696D653A2025732025730D0A00000000AE
:10570000001001403401002083C0434120020020EA
:10571000986E0F4344000020475053206973207651
:10572000616C696421204C617469747564653A2008
:1057300025662C204C6F6E6769747564653A202568
:10574000662C20416C7469747564653A2025660D79
:105750000A000000A05A0008F0B50B30154D20F0EB
:1057600007010024144A0FE003688B420BD38B42DD
:1057700005D95E1A43184768C3E9006700E043682B
:10578000136002C004E0021D10680028ECD120461E
:10579000002802D1286808B10020F0BD064A074859
:1057A0001060074A121A22F00702C0E90024012003
:1057B0002860D7E758000020540000207403002020
:1057C0007063002000B52DED048B83B041EC190B04
:1057D000FBF710F841EC180B18EE100A18EE901AAF
:1057E0008DED008B002818BF0120084320F00040F9
:1057F000C0F17F6000F1E040C00F14D019EE101A24
:1058000019EE900A8DED009B002918BF0121084375
:1058100020F00040C0F17F6000F1E040C00F04BF05
:105820000120FFF71DFA51EC180B03B0BDEC048BFF
:1058300000BD00000000010203040102030406078A
:105840000809000610160B0C0D0E0F10112F383919
:105850003A3B3C4445460000000000000000F03F99
:10586000000000000000F83F000000000000000001
:105870000000004003B8E23F00000000000000000C
:1058800006D0CF43EBFD4C3E033333333333E33F9A
:10589000FFAB6FDBB66DDB3F4D268F515555D53FC6
:1058A00001411DA96074D13F65DBC9934A86CD3F94
:1058B000EF4E454A287ECA3F3E5555555555C53F82
:1058C00093BDBE166CC166BF2CDE25AF6A56113F74
:1058D000F16BD2C541BDBBBED0A4BE726937663E76
:1058E0004FBB610567ACDD3F182D4454FB21E93FF8
:1058F0009BF681D20B73EF3F182D4454FB21F93FE7
:10590000E2652F227F2B7A3C075C143326A6813C6C
:10591000BDCBF07A8807703C075C143326A6913C17
:10592000C4EB98999999C9BF711623FEC671BCBF83
:105930006D9A74AFF2B0B3BF9AFDDE522DDEADBFEB
:105940002F6C6A2C44B4A2BF0D5555555555D53F03
:10595000FF8300922449C23F6E204CC5CD45B73F1E
:10596000513DD0A0660DB13FEB0D76244B7BA93F96
:1059700011DA22E33AAD903F4C5555555555A53FA8
:105980007751C1166CC156BF9015CB19A001FA3ED4
:10599000AD529C804F7E92BEC4B1B4BD9EEE213EFE
:1059A000D43888BEE9FAA8BD00000000000000005D
:1059B00000004054FB21F93F3163621A61B4D03DCD
:1059C0000000601A61B4D03D7370032E8A19A33BA6
:1059D0000000002E8A19A33BC14920259A837B39F8
:1059E00000000000000000006E83F9A22915444E5B
:1059F000D15727FCC0DD34F5999562DB4190433CDB
:105A0000AB6351FE61C5BBDE3A6E24B7E0D24D42B6
:105A1000EA2E49061C92D1091CEB1DFE3EA729B1B6
:105A2000F53582E88444BB2E26709CE9417E5FB444
:105A300039D69139F43953838B5F849C3B28F9BD67
:105A4000FF97F81F0F9805DE8B112FEF1F6D0A5A75
:105A5000CF7E366DB709CB27663F464F2DEA5F9E56
:105A6000C7BA27757BF1E5EBF739073DEA92528A11
:105A7000B15FFB6B085D8D1FA6F810111111813FFE
:105A8000D561C119A0012ABF7DFEB157E31DC73EF4
:105A9000EB9C2B8AE6E55ABE7CD5CF5A3AD9E53D38
:105AA00044697374616E63652066726F6D206375FF
:105AB0007272656E7420746F20656E6420706F73EF
:105AC0006974696F6E733A202566206D657465721E
:105AD000732E2042656172696E6720776520736856
